:0200000407FCF7
:100000003886FC070101FC070901FC072101FC07F8
:1000100000000000000000000000000000000000E0
:100020000000000000000000000000003901FC0793
:1000300000000000000000003B01FC073F07FC0738
:100040003F01FC073F01FC073903FC073D03FC07A8
:100050003F01FC073F01FC07BB05FC073F01FC0714
:100060003F01FC073F01FC071102FC071502FC07DA
:100070001902FC071D02FC072102FC071B07FC07F5
:100080003F01FC073F01FC073F01FC073F01FC0764
:100090003F01FC073F01FC073F01FC073F01FC0754
:1000A0000448854601F002F9004800479907FC071B
:1000B000C046C0463886FC0710B50F4906200880A8
:1000C0000F2000F00CF8012000F009F8002000F0EB
:1000D00006F8002005210907088062B610BD002837
:1000E00009DBC106C90E0120884004490860BFF33E
:1000F0004F8FBFF36F8F70470034005080E100E0F6
:100100000F4880470F48004704207146084203D03B
:10011000EFF309800C490847EFF308800A490847C4
:1001200004207146084203D0EFF3098007490847CD
:10013000EFF3088005490847FEE7FEE7FEE7FEE724
:10014000B900FC07A100FC075301FC075101FC07A3
:10015000FEE7FEE7704710B5032800D10420394CB4
:1001600040010019490008181A43C28010BD032835
:1001700000D10420334A4001801801228A40828045
:100180007047032800D104202E4A40018018012224
:100190008A404280704770B506460498144600288D
:1001A0000D46304602D0FFF7ECFF01E0FFF7DFFF1E
:1001B000224629463046FFF7CEFF70BD70B50124B8
:1001C00021460A3881400D4688B200F02BF8844061
:1001D0001D48C189A9430C43C48170BD10B50446B4
:1001E0000A3804280AD82046FFF7E8FF1749A0007C
:1001F00040188038806D002801D0804710BD002C49
:10020000FCDBE106C90E012088401149086010BDE1
:100210000A20E3E70B20E1E70C20DFE70D20DDE714
:100220000E20DBE700280BD0411E4840C003010C24
:10023000002002E04908401C80B20029FAD1704732
:100240001020704700300050001400503886FC0722
:1002500080E200E0944930B4884201D0012100E0FE
:100260000021924A4901891808E0838ADB07DB0FE5
:1002700012D00388541C8D68CC81AB54CA898B89F9
:100280009A42F2D382885208520082808A69002AF8
:1002900002D0C88930BC104730BC7047F8B5824DD9
:1002A000824E044620890007000F062826D009DC6C
:1002B000012840D002281DD00428F3D12046FFF7A2
:1002C000C9FFEFE7072828D00C28EBD1AC4201D0BA
:1002D000012000E00020400187192046FFF7BAFF07
:1002E000A18849084900A180B9690029DAD0F889B4
:1002F0008847D7E7204600F0A5F8D3E72046AC4270
:1003000001D0012100E00021490189190A69002A70
:10031000C8D0818A9E2319400BE02046AC4201D010
:10032000012100E00021490189190A69002AB9D098
:1003300001219047B6E7F8BD5B48AFE75C48ADE701
:10034000EFF31081012282F31088574B0522120728
:100350009842908801D1802300E040231843908088
:10036000002903D0012080F3108870470020FAE7AD
:1003700010B502464032938FDB07DB0FFBD1838938
:100380008022934313438381CCB2C0231C520B04BD
:100390001B0E03800902090E8180818991438181AE
:1003A00010BD70B5044640480D46844201D001207E
:1003B00000E000203D49400146182046FFF7C0FFFD
:1003C0007C20005B28680102090A2046FFF7D0FF65
:1003D000E978C8068A06800FD20FC000920049074C
:1003E0001043490F0843A081E878C10920468030B6
:1003F0000183E978CA0918D04906CA0F218A202347
:100400009943520111432182E9784906CA0F218A92
:100410000223994352001143218229790907890F48
:10042000818329798907890F0184287A3077E868E0
:100430003061286970616869B06128790007800FB0
:10044000707770BD184930B4884201D0012100E0B6
:100450000021164A490189180EE003891B069B0FEB
:10046000032B1BD0838A9B06DB0F002B1BD0531C56
:100470000C68CB80A25C0280CA888B889A42ECD33D
:10048000828802239A438280828880239A438280D2
:100490004A69002A07D0888830BC10477C231B5A41
:1004A0009B07DB0FE1E7F7E6001000504C86FC07E6
:1004B0000011005069490A880F239B019A4380016B
:1004C00002430A80704765490A880F239B019A43BB
:1004D000800102430A80704710B504465F496048B6
:1004E000088000204880062000F070F8204600F0C8
:1004F0007AF810BD59480188012292031143018006
:1005000001880122114301807047544855490288EF
:1005100002231A430280491E02D302889207FAD4AA
:100520000021018140897047F8B54C4C064620886F
:100530000121C9028843F10208432080FFF7DAFF56
:10054000142000F07BF801256D02A580E58020884D
:10055000E900084320802188680081432180FFF75B
:10056000D4FF401B87B22088690008432080FFF732
:10057000CCFF401B80B2012E16D0A288E91B920A44
:1005800092020A43A280E188281A890A890201435B
:10059000E18021880120800281432180208801217F
:1005A000090388432080F8BD7900A288691A920A5D
:1005B00092020A43A2804000E5E728490120088111
:1005C00029480068002800D000477047002809DB50
:1005D000C106C90E0120884024490860BFF34F8F2F
:1005E000BFF36F8F704730B505001FD01B4C2978C3
:1005F00020880122D2029043C90208432080287833
:100600000128687813D0FFF755FFA97801208002F0
:10061000002921880ED00143218009206080E978DB
:1006200002200029618807D00143618030BDFFF7B7
:100630004AFFEAE78143EFE78143F6E70AE000BFBC
:1006400000BF00BF00BF00BF00BF00BF00BF00BFB2
:1006500000BF00BF401EF2D27047000000150050DE
:1006600001400000A08601008C86FC0780E100E0CC
:1006700018B5164900220A6005200007448A402365
:100680001C434482448A9C4344824A61104B8B62DF
:1006900001231B04CB62048880231C430480009246
:1006A000521C0092642AFBDB0A68D208D2000A605E
:1006B00001889943018018BD0449002802D0FF2019
:1006C000023000E001200860704700000000F407DD
:1006D000204F101AC90092008918400008181249CA
:1006E0000880124801680902090A420711430160A3
:1006F00070470D48018801221143018070470A4864
:100700000188490849000180704701200849C00359
:10071000086070470749086070470648006800286D
:1007200000D0004770470000003400500CE400E0A7
:1007300000E100E09086FC0713490860704712480A
:100740000068002800D000477047104A13695B0812
:100750005B00136153691B0E1B06401E034353616C
:100760009069000E000690611069022398434900C9
:100770000843106110690421884310611069012148
:1007800008431061704700009486FC0700E000E019
:10079000294901200870704700F07EF800F0D4F875
:1007A00000F0A5F92548FFF7C7FF01212448FFF70E
:1007B000CCFF244F204C20780028FCD01E4A103259
:1007C000111F081F00F0DDF8606800F052FC0022E5
:1007D0003B4600F017FB05460E46206900F049FC39
:1007E0002A46334600F06EFC13D3606800F041FCEB
:1007F00000223B4600F0ABFB05460E46206900F0A8
:1008000038FC2A46334600F049FC02D360880828A9
:1008100008D22169A06800F0B0F9206960606088A2
:10082000401E04E0E168A06800F0A7F9082060809D
:1008300000202070BFE700000080FC079107FC0744
:1008400020A107000000E03F38B505242407208AD6
:10085000022188432082A08A0007FCD50B484188EA
:10086000FF2201321143418009490A48FFF799FDEF
:10087000002004230322120219460090FFF78BFC8C
:10088000608A202188430843608238BD20000050E0
:100890004013FC070011005038B527490820088094
:1008A000FFF758FC25484088C046C04623484030E2
:1008B0004188C908C9004180204C203C61898905D4
:1008C0000AD54188C2130905090D8918418041885C
:1008D0007822914340314180608840084000608028
:1008E00017480021016005252D076B8A402213431C
:1008F0006B826B8A93436B824161124A826201224E
:100900001204C26228888022104328800091009837
:10091000401C00906428FADB0020FFF7CDFEFFF7B3
:10092000A7FEFFF791FFA220E8826088E0218843BC
:10093000A030608038BD00000033005040000050FF
:100940000000F407204F101A08B500220F231146AB
:100950001046FFF700FC00220F2301211046FFF78D
:10096000FAFB00220F2303211046FFF7F4FB2D486A
:10097000006800906846FFF7AFFD0120FFF7D4FD47
:1009800008BDF7B506460D460120FFF79CFDFFF7B1
:10099000BCFD254C208000F051FB244F394600F06F
:1009A000F3F900F066FB224A224B00F02BFA224AB0
:1009B000224B00F0DBFA0022214B00F0CEFA00F0CF
:1009C00095FB30600020FFF77EFDFFF79EFD208045
:1009D00000F034FB394600F0D7F900F04AFB164A24
:1009E000184B524200F00EFA174A184B00F0B5FAB5
:1009F000154A174B524200F0B9FA00F077FB286015
:100A00000320FFF760FDFFF780FD208000F016FB5C
:100A1000394600F0B9F90F4900F079F902990860F8
:100A2000FEBD00005813FC071480FC0700008E4335
:100A30007B14AE47E17A943F1F85EB51B81E3540D9
:100A400000004E4047E1F63FCDCCCCCCCCCC0C40A6
:100A5000333327400000F040F8B57A4C00277A4D38
:100A600067707848A3780930C15C801D415C60786C
:100A70000622161A0122B2401140724AD21CD25CE0
:100A8000002A01D0072801D0002906D040004119D2
:100A90004978285CFFF775FB05E04000411949786B
:100AA000285CFFF764FB6078401CC0B260700828C7
:100AB000D7D3654DA0781035002815D040004019D7
:100AC0002038C17F807FFFF75CFBA0784000411990
:100AD0004978285CFFF74BFBA078401CC0B2A0709F
:100AE000062800D3A770F8BD04210020EBE7F8B575
:100AF0000024554E032527462D02600081190097DA
:100B00004978305C00232A46FFF745FB641C082C1B
:100B1000F3DB2E464C4D00240127103560004119AF
:100B200000974978285C00233246FFF734FB641CA9
:100B3000062CF3DBFFF7E3FD4448FFF7EBFD052050
:100B40000007818808221143818081883D4A8908F5
:100B500012788900114381803D4C0020A080E08004
:100B6000024601460120FFF7B5FDFF20F530608009
:100B7000FFF7CBFDFFF7BDFDF8BDF8B507463548DB
:100B80000E46874204DDFF20C005C74200D3002780
:100B90003149384600F0F8F800F057FA294CC5B250
:100BA00009342570384600F050FA0A216943401A8A
:100BB000C0B260700A21484300F040FA00906420FF
:100BC000684300F03BFA05462349384600F09FF899
:100BD000294600F094F8009900F091F800F035FAF9
:100BE000A0701C48864204DDFF20C005C64200D329
:100BF0000026194F3046394600F0C6F800F025FAB5
:100C0000C5B2E570304600F020FA0A216943401A67
:100C1000C0B220710A21484300F010FA009064200D
:100C2000684300F00BFA05463946304600F06FF88D
:100C3000294600F064F8009900F061F800F005FA28
:100C40006071F8BD1680FC075C13FC07590AFC07AD
:100C5000003400500000C84200002041F8B50246B0
:100C60004A40D40F42004B0052085B089A4202D21D
:100C70000246084611464A0023D0C30D4A00DDB2A1
:100C8000120EAD1A202D35DA49020126490AF60561
:100C90008A19002C00D0524220214F1B1146B94026
:100CA0002A411018C20D9A4221D0002C17D0012DD4
:100CB00008DCDA05801AD20F8019D207DBB200F007
:100CC0005CFAF8BDDA05801A012340001B06C01843
:100CD00080185A428018CA0F1043490007E049089B
:100CE000C2071143DA05801A80194008801800F005
:100CF0003CFAF8BD61000122511A001BF7E70122FE
:100D0000D2075140AAE70122D2075040A6E7024687
:100D100070B54A40D30FDB0740002DD04A002AD0DF
:100D2000010E140E000212020919400A520A841818
:100D3000E50104465443000A120A2E045043A41944
:100D40004219200CC543AA18120C0125AD03521CF0
:100D5000521912047F39240400D0521C104301D4CC
:100D60004000491EC2B20C06C0092018401C4008B1
:100D7000802A02D003E0002070BD40084000002916
:100D800000DA0020184370BD70B502464A40D50F06
:100D900040004A00ED0740085208002814D0002AFD
:100DA00012D0C40DD30D41020120C0055202490AE0
:100DB000520AE41A091812187D34914201D3641CB6
:100DC00000E04900002C01DA002070BD00239142B0
:100DD00001D3891A0343400849000028F7D10029AC
:100DE0000AD0914202D10121C90705E0914201D206
:100DF000012101E00121C943E005C018401900F0BC
:100E0000B4F970BDF0B507460846584087B0C00F2A
:100E1000049048000E46590040084908BC1A884111
:100E200005D2384631461E4617460B460246580044
:100E3000400810434DD0300D039040055900400D3F
:100E4000490D0590401A0290402873DA18030121D9
:100E5000000B09050843019004980092002806D071
:100E60001146019A49420020904100910190029858
:100E700040210A1A0199009800F054F905460C46E1
:100E80006B4607CB00F05EF9C0197141039A0E0D55
:100E90000023D71756401A467A40164344D0049A86
:100EA000002A2DD0029A012A039A15DC1205C01AD5
:100EB000914101263605001C7141D20F059ED207D3
:100EC0000093019202962A46234600F09CF907B04F
:100ED000F0BD38463146FAE71605234A0F46B218E8
:100EE000C01AB74101210905001C4F4100187F417C
:100EF000114618187941E20F10436D19644113E04F
:100F0000E2076D0815436408C2071443039A0126DB
:100F10001205C01A91413605001C7141CE074008E8
:100F200030434908C01851412A46234600F05EF973
:100F3000CDE7FFE7049801224000C117121A0023F1
:100F40008B4104983146C417381AA141EEE730B4FA
:100F50000124E407634030BC54E730B40124E407C3
:100F6000614030BC4EE700000000E0FFF0B51FB468
:100F700088B00B990998002448400999C00F49008E
:100F800049080991C0070B990090490049080B9145
:100F900009990898A64608431CD00B990A9808435B
:100FA00018D0099801244000420D4800410D0998CD
:100FB00024050003000B204309900B980003000B4D
:100FC00020430B9050181C494018002201901446F1
:100FD000104605E0002001460DB0F0BD032801DAFF
:100FE000034600E003239C46C11A0AAE0AE05F00F4
:100FF00008ADED5B4F00F75B7D430027AA187C41ED
:10100000491C5B1E6145F2DD410004AB5A522104CC
:10101000120C0A43240C401C0828DFDB01980290C4
:101020000099704601910090059B049A07990698D3
:1010300000F0E9F8D0E700000DFCFFFF10B500223A
:101040009623114600F099F810BD4100400201229C
:10105000400AD205090E80187F2901DA0020704766
:10106000962903DC9622511AC84070479639884069
:101070007047C20FD207400040080BD0C10D0723B4
:10108000DB01C91840020905400A1143C2084007A4
:1010900011437047002001467047000010B5002939
:1010A00004DB0124E40740428C412146002B04DB91
:1010B0001C460123DB075242A3418B4200D18242EE
:1010C00010BD000010B5002904DB0124E4074042F4
:1010D0008C412146002B04DB1C460123DB075242D6
:1010E000A341994200D1904210BD0000CB0FDB0715
:1010F000490010B5490802460A4307D00A0D0724E3
:101100000903E401090B121B002A01DC002010BDB9
:10111000C900440F0C43C100E018D205801800F04C
:1011200024F810BD10B5202A04DB0146203A914076
:10113000002010BD914020239C1A0346E340194330
:10114000904010BD10B5202A06DBCB170846203A88
:101150001041C1170B4306E00B461341D040202439
:10116000A21A91400843194610BD002904DA401C18
:10117000490001D140084000704770B40024050CBC
:1011800005D11024000402D1002921D01124050E1C
:1011900001D100020834050F01D10001241D850F83
:1011A00001D18000A41C002801DB4000641C002940
:1011B00008D020252E1B0D46F540A14000D001216E
:1011C0002943084301061B1B000ADB1D02D5002032
:1011D00070BC7047DB05181880180029F8DA401C2D
:1011E0004900F5D170BC40084000704710B5002B95
:1011F00008DA0024401C614192185B411A4301D176
:101200004008400010BDF0B51FB482B005460C0088
:1012100003D0084600F06DF802E000F06AF82030D4
:101220000246009021462846FFF77CFF049B059A62
:1012300004460F4618431143084314D01846104380
:101240001BD0009840210A1A1846059900F040F872
:1012500005460E46009A05990498FFF763FF084378
:1012600005D0012004E02046394607B0F0BD00203B
:10127000C11705430E432C43374300990E9863056D
:10128000401A7905E40A00220C43FD0A0A3002D50F
:1012900000200146E9E70105101969410C9C0D9DEC
:1012A00000196941FFF7A2FFDFE70000064C0125A6
:1012B000064E05E0E36807CC2B430C3C98471034FE
:1012C000B442F7D3FEF7F0FE7813FC079813FC073F
:1012D00010B5202A04DB0846203AD040002110BD7A
:1012E0000B46D340D0402024A21A9140084319460F
:1012F00010BD2021020C01D010211046020A01D09D
:1013000010460839020901D01046091F820801D091
:101310001046891E420801D0881E7047081A70477F
:1013200002E008C8121F08C1002AFAD170477047AE
:10133000002001E001C1121F002AFBD1704700000C
:101340000B08008300000000020000000000000005
:101350000000000000000000010000010202020481
:101360000200020602050203020102070102010156
:1013700001000103000200049813FC070080FC0731
:10138000380000002013FC07D013FC073880FC074E
:10139000600600003013FC07000008000000000099
:1013A000000000000000000000000000000003003A
:1013B000000001000001000000000000007E306D10
:1013C00079335B5F707F73771F4E3D4F470000009E
:0400000507FC00A153
:00000001FF
